:020000040800F2
:1000000000800020DD0200083103000831030008F1
:10001000310300083103000831030008000000002C
:100020000000000000000000000000003103000894
:10003000310300080000000031030008310300080C
:1000400031030008310300083103000831030008C0
:1000500031030008310300083103000831030008B0
:1000600031030008310300083103000831030008A0
:100070003103000831030008310300083103000890
:1000800031030008000000003103000831030008BC
:100090003103000831030008310300083103000870
:1000A0003103000831030008310300083103000860
:1000B0003103000831030008310300083103000850
:1000C0003103000831030008310300083103000840
:1000D0003103000831030008310300083103000830
:1000E0003103000831030008310300083103000820
:1000F000310300083103000831030008000000004C
:100100000000000031030008000000003103000877
:10011000310300080000000031030008310300082B
:1001200031030008310300083103000831030008DF
:100130003103000800000000000000003103000847
:100140003103000831030008000000000000000037
:10015000000000000000000000000000000000009F
:100160000000000000000000000000003103000853
:100170003103000800000000000000000000000043
:100180000000000031030008000000000000000033
:10019000000000000000000000000000000000005F
:1001A00000000000000000003103000831030008D7
:1001B000310300083103000831030008000000008B
:1001C00000000000310300080000000000000000F3
:0801D0003103000831030008AF
:1001D80010B5054C237833B9044B13B10448AFF379
:1001E80000800123237010BD2800002000000000BB
:1001F8002835000808B5034B1BB103490348AFF382
:10020800008008BD000000002C00002028350008F0
:100218001FB501A800F062FD244B1B68834201D181
:10022800019B13B972B630BFFDE7039A1B891344CB
:100238001F4A934202D072B630BFFDE71D4AD2F87A
:10024800001201F16043B3F5004F0FD811F0070316
:100258000CD1D2F80402C20708D520F0010202F13D
:100268007842A2F5C442B2F53E4F02D372B630BF0F
:10027800FDE772B64FF0E0224FF0FF34136193614F
:100288009A0002F1604202F561420133082BC2F87C
:100298008040C2F88041F3D1074B054A9A60BFF30A
:1002A8004F8FBFF36F8F81F3088800474800002005
:1002B800006200080060000800ED00E0024B1868CA
:1002C800421C1A60704700BF4400002072B630BF5D
:1002D800FDE700000E48854600F028F800F03CF8DD
:1002E8000C480D490D4A002302E0D458C450043389
:1002F800C4188C42F9D30A4A0A4C002301E013605F
:100308000432A242FBD303F0D9F8FFF781FFFEE7DE
:100318000080002000000020280000208838000805
:100328002800002060070020FEE700000848016858
:1003380011F0807F00F009804FF0005001680548F7
:1003480001684FF0805001687047FFF7FEBF00005A
:100358002020024000400020034AD2F8883043F4AD
:100368007003C2F88830704700ED00E0B0F1006F0C
:1003780070B5044616461D4619D3144BB3F8E02051
:100388004FF6FF739A421DBF114B1249D3F8E0355F
:1003980011491CBF01EA832101F1006181420BD898
:1003A80000F1604303F51043B3F5806F04D30B48A5
:1003B8004FF43671FFF78AFF094A536943F0010386
:1003C80053612660BFF36F8F656070BD0075FF1FB6
:1003D8000070FF1F00FCFF0300000208AB35000897
:1003E80000200240B0F1006F38B504460D4612D324
:1003F800144BB3F8E0204FF6FF739A4217BF124B25
:10040800124BD3F8E025124B1CBF03EA822303F1F9
:100418000063834204D80F4840F2F621FFF756FFE5
:100428000D4A536943F480235361EFF3108272B687
:100438000023E958E1500433B3F5807FF9D182F302
:10044800108838BD0075FF1F0070FF1F00000208EC
:1004580000FCFF03AB35000800200240064B5A6938
:10046800002ABFBF054A9A6002F188329A60BABF73
:100478005869C00F002070470020024023016745DB
:10048800044B5A6942F000425A615869C043C00F90
:10049800704700BF0020024070B50646FFF70EFF08
:1004A8000F4C05462369DA030BD423694CF2FA3260
:1004B80013400DD00B494A681A434A600120236152
:1004C80070BDFFF7FBFE401BB042EBD90320F7E7F6
:1004D8002369DB0744BF012323610020F0E700BF45
:1004E800002002400000002002282DE9F8430446BD
:1004F8000F469046994603D92248B321FFF7E6FEF6
:10050800214D2B78012B3AD001234FF47A702B70B0
:10051800FFF7C2FF0646F8B91C4A6860136813F46F
:1005280080631FBF136823F48063136002232B7753
:10053800BCB942464B463846FFF718FF01244FF432
:100548007A70FFF7A9FF064624B1104A536923EAD7
:100558000403536100F070F800232B703046BDE8A7
:10056800F883631E012B08D841463846FFF73AFF47
:10057800A31E5C425C41A404E1E70024DFE70226F5
:10058800ECE700BFAB350008000000200020024067
:10059800012838B5094C054608D1636943F00403BE
:1005A8006361636943F48033636138BD04484FF481
:1005B8000871FFF78BFEEB07EFD4F2E7002002404B
:1005C8000F360008184BB3F8E0204FF6FF739A4235
:1005D80010B5044623D0154BB3F8E035B3F5007FCA
:1005E8001FD0B3F5807F0CBF80234023A34204D8DB
:1005F8000F4840F24921FFF769FE0E4B5A69E400A3
:1006080022F4FC7204F4FF6414435C615A6942F0FA
:1006180002025A615A6942F480325A6110BD40237D
:10062800E4E74FF48073E1E70075FF1F0070FF1FD8
:100638000F360008002002401548037FDAB203F0A5
:10064800FD03012B10D1134B196821F400711960B7
:10065800196841F400611960196821F40061196092
:10066800196841F400711960931E012B0CD8094BCD
:100678001A6842F480521A601A6822F480521A608A
:100688001A6842F480621A6000230377704700BF3B
:1006980000000020002002402DE9F8430368012BE8
:1006A8000546884603D932489021FFF70FFE314EA0
:1006B8003378012B5AD001274FF47A703770FFF73F
:1006C800EBFE044610BB2C4B70601A6812F4007FD6
:1006D8001A6820D0510506D51A6822F480621A607B
:1006E8000323337700E037772B68012B1DD1686827
:1006F800FFF74EFF4FF47A70FFF7CEFE1E4A53699C
:1007080023F0040304465361FFF796FF0023337078
:100718002046BDE8F883520505D51A6822F48062A0
:100728001A600223DDE73077DEE74FF0FF33C8F8C1
:100738000030AF68DFF84090D5E902321344BB427D
:10074800E2D969683846FFF73DFF4FF47A70FFF742
:10075800A3FED9F8143023F4FD73C9F8143018B186
:10076800C8F800700446CFE70137E5E70224CFE771
:100778000F36000800000020002002404379012BBA
:1007880007D10368012B04D10079431E5842584110
:1007980070470020704700002DE9F04F4FF0300AF5
:1007A8000AFB010A89B0DAF8208006460D46914610
:1007B8001F46B8F1000F01D100BEFEE7DFF894B084
:1007C800DBF8004000F04AFF20B9DAF8101011F009
:1007D80010010AD01DB14146304600F099FA1A4B73
:1007E8001C68204609B0BDE8F08FF5B14846FFF710
:1007F800C5FFD0B1023F012F17D820236A464046D3
:1008080001F08FFC0028ECD1104B009A9A420CD1D1
:100818000D4B1C680E4B1B68A342E2D0002DDED0A6
:100828000121404600F015FFD9E72946304600F07F
:100838001FFF10B9DBF80040ECE72A46494630466E
:1008480000F054FF0446E5E7200000203DB8F39689
:10085800480000202400002073B50D4604460021FE
:100868002846CDE90011FFF789FF18B323681C4E0D
:10087800B34206D101AA204600F026FE08B100BE08
:10088800FEE7236BB34207D16A460121204600F0F8
:100898001BFE08B100BEFEE7DDE900239A4284BFD3
:1008A80013460192AB60019A2946204600F090FC5D
:1008B80002B070BD0146204600F076FF064608B932
:1008C80000BEFEE705F1080100F080FF08B100BE98
:1008D800FEE7AB680193304601F022FCE3E700BF76
:1008E8003DB8F396F7B5056A074628460E4600F068
:1008F8004EFF796E0446304600F0EAFB0444284671
:1009080001F088FC0746284601F08FFC07220146C3
:100918000DF1010002F0CAFD33798DF800306A4606
:100928003B462146284601F017FC003818BF012035
:1009380003B0F0BD2DE9F843099F0E46904699464D
:100948000024BC4201D300200EE03D1BB5F5806FAA
:1009580028BF4FF480650B4A2B4604EB090130464B
:1009680001F0DFFB10B10120BDE8F8830899054AC2
:100978002B466118404601F0EFFB0028F3D12C44C8
:10098800DFE700BF4C0000202DE9F04F89B00E468C
:10099800044600F0C3FE014600B1FEE7204600F021
:1009A80079FF002853D100221146204600F086FE28
:1009B800054600285ED1204600F094FB002859D057
:1009C8000123049304A903F101232046CDE9053549
:1009D800079500F0E9F9054600284BD104A8FFF770
:1009E800CDFE80F0010104AAC9B2204600F066FEDF
:1009F80028B12946204600F031FE00283AD004A844
:100A0800FFF7BCFE0746002848D104A92046FFF797
:100A180023FF9DF8173084F86030033B012B07D87B
:100A2800384600F00AFA054610B1FF2384F8603012
:100A38009DF81730023B022B20D8002000F0E8F97F
:100A48000546D8B1FF2384F8603000BEFEE70123D5
:100A5800984284F86030A6D194F860308DF8173049
:100A6800042B6ED8012B74D800F0E880FF2384F89B
:100A78006030E3E0012384F86030EDE794F86030FB
:100A8800FF2BE2D00DB100BEFEE72A4629462046DC
:100A980000F014FE0028EDD000BEFEE79DF81770A8
:100AA800012F3FD1002001F041F8831E022B05469B
:100AB8000CD8034604AA39462046FFF76DFE834B3F
:100AC8001B68984208D184F86050C5E7C5B2012D6B
:100AD80084F86050C0D105E07D4B1B6898422BD14B
:100AE80084F86070002304AA19462046FFF754FED4
:100AF80005460021204600F0B1FD18B9734B1B686C
:100B08009D42A9D0256B002304AA01212046FFF7A6
:100B180043FE704B9D429FD16C4B1B6898429BD102
:100B28000423A8E7002304AA01212046FFF734FE86
:100B3800664B1B68984201D005239CE79DF8175027
:100B4800C5E7052B92D1002000F077F9002875D071
:100B58008CE7002304AA19462046FFF71DFE054628
:100B68000021204600F07AFD18B9584B1B689D42B9
:100B78004BD0D4F82090B9F1000F01D100BEFEE7A8
:100B8800276D0FB900BEFEE70025D4F828A0A846B7
:100B9800C24515D1636D0195002200925B684A46F3
:100BA80039462046FFF7C6FE034660BB626D014624
:100BB8005268384600F043FD034698B100BEFEE790
:100BC800636A03EBC8032946D3F804B048460023F8
:100BD8005A4600F0F5FC08B100BEFEE75D4408F196
:100BE8000108D5E7D4E91502013A016850F83250F6
:100BF80000EBC20C691ADCF80420384600F01FFD2F
:100C080038B100BEFEE700BEFEE704A92046FFF7A4
:100C180023FE94F86030DA1E012A0CD8002000F078
:100C28000CF918B9002000F0F3F838B1FF2384F864
:100C3800603000BEFEE7023B012BF3D994F8603028
:100C4800FF2B01D100BEFEE70022012B224F0392A9
:100C580012D01146204600F031FD68B13D681022DF
:100C680000210DEB020002F021FC204600F06EFD91
:100C7800284609B0BDE8F08F00231A4619462046D9
:100C8800FFF78AFDDFF844803D68D8F800309842C5
:100C9800E5D1A842E3D00E4B1B689842DFD0002173
:100CA800204600F039FD0028D8D1039B0133039377
:100CB800039B012B00D0FEE7236AD8F800505A782E
:100CC80032715B68B3603460C9E700BF4800002038
:100CD800200000203DB8F3962400002010B50446FB
:100CE800064800F040FD05482146FFF74DFE044642
:100CF800024800F0EFFD204610BD00BF4C04002064
:100D080028B1036D8B4201D1806E70470020704777
:100D180013B50C4601AA416E204600F036FC0028A7
:100D280009DB0199A2680123521A204600F087FCCA
:100D3800C00F02B010BD0120FBE773B505460C4695
:100D4800006D6946164600F06DFE024608B100BE09
:100D5800FEE7F179012905D0204600F0CDFE08B163
:100D680000BEFEE79DF80330012B05D1204600F0B8
:100D78004BFE08B100BEFEE7B168204600F04BFD0F
:100D880008B100BEFEE7B5F85C20A98D204600F04A
:100D980051FD08B100BEFEE7204600F0DFFD08B1B6
:100DA80000BEFEE702B070BD73B50C46064600F003
:100DB800C2F9E06038B3022803D1356A1DB900BE14
:100DC800FEE700BEFEE722463146284600F036F927
:100DD800D0B9284600F07FFD012301460DF1070236
:100DE800284601F09EF988B901220DF1070128462D
:100DF80000F085FD10B101238DF807309DF807300C
:100E080003F00F03E371002002B070BD0120FBE77F
:100E180013B5002814BFFF20012001A901F073F9C0
:100E280048B9019800F0DAFE0446019801F078F913
:100E3800204602B010BD0124FAE71FB5002814BFF0
:100E4800FF20012001A901F05EF9A8B9019802A9C3
:100E580000F0E8FD044668B99DF80B30032B03D178
:100E6800019800F0D1FD0446019801F059F9204697
:100E780004B010BD0124F7E70124F8E7436A002015
:100E88005A68034613448B4201D20130FAE770478F
:100E98002DE9F74F06460C4691461D46A3B9302367
:100EA80003FB01030129D3F820A07DD1284600F0D7
:100EB8003DFE04287AD0736DD3F804B02746BAF102
:100EC800000F76D100BEFEE71846FFF757FC07462D
:100ED800002853D10146304600F066FC28B94FF08F
:100EE8000108404603B0BDE8F08F01A900F06EFC90
:100EF8000028F4D101993046FFF7C0FF736AD3F890
:100F080004B0EB79042B80460CD1ECB1012C28D12C
:100F18002B68013B434523D823D12C79033C18BFC8
:100F280001241EE0384600F001FE0428EDD0FCB98B
:100F38002C68012C03D813D12B79022B10D14445EE
:100F48008CBF002401240CE02B68013B434506D9E3
:100F58000124302303FB0463D3F820A0AFE703D0B8
:100F680000244FF0000BF4E72B79022BF8D1EFE7C0
:100F7800012CF6D12B68012BF2D8E9E7302303FBCB
:100F88000463D3F820A0EB79042B06D0002000F0EE
:100F9800CDFD042801D0012C02D04FF0000B8EE7C4
:100FA800736DD3F804B08AE70127F6E72746AB4606
:100FB80085E720234A465946504601F0B2F8804654
:100FC80000288CD1BFB1D9F800301B4A934212D007
:100FD800012C10D100F0AAFD042806BF736DD3F8C8
:100FE80004B0C34620234A465946504601F099F8B2
:100FF80000287FF474AFD9F800300F4A934210D11B
:1010080045B996F86C20002A7FF46BAF012C7FF469
:1010180068AF01E0012C07D1012286F86C20C6F8E0
:1010280068B0002D3FF45DAF034AB3EB020818BF68
:101038004FF0FF3855E700BF3DB8F3962DE9F34769
:1010480006460C4601460020174600F092FB051E96
:101058003ADB3046646E00F09AFB5FFA84F96B1E47
:1010680009FB03084FF0FF34A5B9631C0ED0012318
:10107800002C7B7104EBD47304F001044FEA630382
:10108800B8BF6442013301343B603C71284602B06A
:10109800BDE8F08701230DF107024146304601F013
:1010A80040F8002805F1FF3A10DB01220DF1070195
:1010B800304600F024FC18B9B4F1FF3F08BF2C46B5
:1010C800A8EB09085546CFE70725DFE70125DDE747
:1010D80010B503685A1E0379013B4C00594304FBC1
:1010E800021010BD826A816D914270B502D0531C06
:1010F8008B421CD11A2A1AD800231C464E1E9E4227
:1011080009D8914215D2426A02EBC3035868031BFF
:101118005842584170BD446A456D04EBC30405EB61
:10112800C30564686D68A54201D10133E7E7002073
:10113800F0E70120EEE71FB504466946006A00F0B3
:1011480071FC08B100BEFEE7206D02A900F06AFC40
:1011580008B100BEFEE79DF80030012B09D19DF8CB
:101168000230032B05D19DF80800013818BF012073
:10117800400004B010BD73B5CB79042B06460D466C
:10118800144622D10B68012B1FD16946104600F086
:1011980049FC08B100BEFEE79DF80030032B14D1CE
:1011A80021463046FFF7B4FD08B100BEFEE72046F1
:1011B80000F014FD08B100BEFEE72A46214630467D
:1011C800FFF7BBFD08B100BEFEE702B070BD00002E
:1011D8002DE9F04F04468BB00D461146FFF74EFE41
:1011E800D4F820808246B8F1000F01D100BEFEE796
:1011F800276D0FB900BEFEE7636A28465E68FFF7F1
:10120800BDFA88B1606E00F0BCF9A36A0022013B08
:101218003244904201D9013BFAE7534504D80123EF
:10122800EB710BB0BDE8F08F3A4629462046FFF730
:10123800A2FF2B68012B18D1EB68022B0ED0414678
:101248002046FFF765FD08B100BEFEE72A46414685
:101258002046FFF772FD08B100BEFEE7394620467A
:10126800FFF756FD08B100BEFEE70DF1260209A9F9
:10127800404600F0B9FA01236B71BDF82420238998
:10128800134462891344E268013A32441344628F7A
:10129800B3FBF6F30393238F1344BDF826201344BE
:1012A800E26B013A32441344B3FBF6F30493EB794F
:1012B800042B24D1D1462B68AAEB0902013B9342A7
:1012C80071D8626A52F839101268A1EB020B2A79B8
:1012D800012A4FEAC90364D1039A91454AD8626D3D
:1012E80013443846996813683246C91A0023059191
:1012F80000F066F90599002831D000BEFEE700200D
:1013080000F014FC0428D5D04FF000092B68013BED
:101318004B4500F29D80636A1968059153F83910AE
:10132800059803EBC9034FEAC9029B6806932B791A
:10133800012BA1EB000B40F08980039B4B456ED33A
:10134800636D99581B683246C91A384600230791BD
:1013580000F036F90799002856D000BEFEE7CDE91F
:1013680000165B463A4641462046FFF7E3FA08B1C5
:1013780000BEFEE729462046FFF7B4FA02232B7188
:1013880018B1454A136801331360049B994522D864
:10139800002332465946404600F012F980B100BE9B
:1013A800FEE7022AF1D009F1FF39CA4583D20023AA
:1013B80032461946384600F042F9E0B100BEFEE771
:1013C800CDE900B65B46424639462046FFF7B2FAF9
:1013D80008B100BEFEE729462046FFF783FA2B68CE
:1013E80001332B6001232B710028DCD02A4A1368B3
:1013F80001331360D7E739462046FFF789FC0028F8
:101408003FF40FAF00BEFEE7CDE900165B463A4653
:1014180041462046FFF78EFA08B100BEFEE729468E
:101428002046FFF75FFA02232B7118B11A4A136896
:1014380001331360049B4B451DD3002332465946A4
:10144800404600F0BDF848B100BEFEE7022BF1D0DF
:1014580009F10109CA45BFF459AFE2E6DDE9052300
:10146800CDE900B69B1A394642462046FFF762FA94
:1014780008B100BEFEE729462046FFF733FA2B687D
:1014880001332B6001232B710028E1D0024A136835
:1014980001331360DCE700BFBC04002010B504462C
:1014A800406E00F06EF8636A5B685A1E0244594247
:1014B8001140A26D013A5A43501AA26A53435B1A6B
:1014C800984228BF184610BD302303FB01032DE9BD
:1014D800F74FD3F8209004460F469046B9F1000F15
:1014E80001D100BEFEE70AB900BEFEE7002515607F
:1014F800B3F808A0DB68012908BF856E9A445544F3
:1015080004230DEB03022946484600F00AFE06466E
:1015180038B10126484600F003FE304603B0BDE866
:10152800F08F302303FB0743BDF80420B3F80AB05B
:1015380046F608139A4220D1BDF806309B4501D0E3
:101548000326E7E704230DEB03020BEB05014846EE
:1015580000F0E7FD0028DCD1BDF8042046F60713AB
:101568009A42EDD13022BDF8063002FB0744A3852C
:101578005B445344C8F80030CCE7BBF1000FEBD014
:10158800DEE7342358433830704773B50C460546B8
:10159800164600F03FFEA04203D9284600F03AFE66
:1015A8000446A9683423383903FB14116A462846CF
:1015B80000F061FE0028A4BF009B336002B070BD3C
:1015C8002DE9F3411E468368994205460C461746A5
:1015D80030D25B1A93422DD3EEB16A4600F04BFE2F
:1015E800002829DB013FDDF800803C446A4621469B
:1015F800284600F040FE00281EDBDDE900472846AB
:101608003A46214600F0DAFD002815DB6EB1444564
:1016180012D9013CEAE7511E21446A4600F02BFE2C
:10162800002809DBDDF80080E0E73C44444503D8A6
:101638000134DBE74FF0FF3002B0BDE8F08110B4B1
:101648001AB15DF8044BFFF7BBBF10465DF8044BB9
:101658007047002382681946FFF7F1BF302303FB68
:101668000101086A08B900BEFEE7042200F047B984
:1016780030235943421810B5146A0CB900BEFEE76E
:1016880041580D4B994206D1D16813895B1802D293
:101698005189C91801D300200CE0A3689942FAD2F5
:1016A800106920F4F97020F001000005000DB0FA6F
:1016B80080F0400910BD00BF3DB8F396F8B5134659
:1016C8000F461646002102460546FFF7E1FB044691
:1016D80050B9334605F1300201212846FFF7D8FBFF
:1016E80010B1002F18BF04462046F8BD1FB530239F
:1016F80003FB02010A6A0AB900BEFEE70023CDE92E
:10170800023301934FF480730093024B00F06EFA9A
:1017180005B000BDC004002000207047002110B5AE
:101728000446084600F0BEFD04F12001C0B200F0F6
:10173800EAFC40B9012100F0B5FD04F15001C0B246
:1017480000F0E1FC08B100BEFEE710BD10B504468C
:10175800006D08B100F0E4FC206A18B1BDE8104043
:1017680000F0DEBC10BD7022002101F09FBE01F028
:101778008DBE0B7838B1FF2B00E0022B0CBF342054
:101788004FF0FF307047012BF7D13420704710B568
:10179800044600F03FFDFFF7F4FEA368984201D924
:1017A80000BEFEE7181A10BD1FB5602303FB010039
:1017B8006A46046AA16820461023103900F0B1FC7B
:1017C800002818BF0024204604B010BD70B50D468F
:1017D800044600F080F82A46A0F1100104232046B0
:1017E800BDE8704000F09DBC73B5002306460D4669
:1017F8001446019300F06FF80423A0F108010DEBE3
:101808000302304600F08DFC18B9019B2B801B0C9D
:10181800238002B070BD13B50446019100F05BF857
:101828000423A0F110010DEB0302204600F0B8F8E4
:1018380002B010BD73B5164605460C4600F04BF8CD
:101848000423A0F1080144EA06440DEB03022846EC
:10185800019400F0A5F802B070BDFFF71FBE13B5E4
:101868001A2201290346019208460AD15A6A03F14D
:10187800280401A900F0DBFC08B9019B236002B031
:1018880010BD022903D15A6D03F15804F1E7012074
:10189800F5E7000038B50E4B002918BF0B46436228
:1018A800D033436501210446FFF7D9FF58B9022117
:1018B8002046FFF7D4FF054638B9206A00F0AAFC95
:1018C8006066284638BD0125FBE70925F9E700BF12
:1018D800C005002070478068183820F007001038CD
:1018E8007047042809D0052803D1481E18BF0120D5
:1018F8007047431A5842584170470120704738B51D
:1019080015460C4661B15AB100F08FFC25442146BA
:1019180011F8013B834203D1A942F9D1012038BD16
:101928000020FCE738B50C4601231146224605463F
:1019380000F0F7FB00280FDB012221462846FFF7BD
:10194800DEFF18B103232370002038BD2378012B54
:1019580014BF02230123F6E70120F6E7F0B58168FA
:1019680085B01039054621F0070400F05EFC0B4BEA
:101978006A4603F1100718685968164603C6083303
:10198800BB423246F7D110236A462146284600F06A
:10199800E3FB003818BF012005B0F0BD92360008FF
:1019A8002DE9F3471D4606460F46904600F032FCE7
:1019B8006C1E044440420440082C01D900BEFEE7D6
:1019C800304600F032FC2A4682464146684601F01D
:1019D80099FD621B51460DEB050001F067FD23469A
:1019E8006A463946304600F0B7FB003818BF012078
:1019F80002B0BDE8F08707B501238DF8042001AADD
:101A0800FFF7CEFF03B000BD81681839012221F02D
:101A18000701FFF7F0BF8268183A22F00702FFF7C4
:101A280081BF000030B50D46816887B0102302AA37
:101A38001039044600F075FB002802DA012007B0CF
:101A480030BD102202A92046FFF759FF00283AD1DD
:101A58001E49102202A801F019FD00280CBF01231D
:101A680002232B702046FFF736FF012301460DF1B4
:101A78000702204600F055FB0028DFDB9DF8073001
:101A880003F00F021B096A702B7101220DF1070187
:101A98002046FFF734FF10B96B78042B03D90123D4
:101AA8006B7000232B71A268183A22F00702083ADB
:101AB800A91C2046FFF736FF0028BFD1E91C2046A5
:101AC800FFF7A9FFBBE70323CBE700BF9236000867
:101AD80013B50C46C0B201A900F015FB50B9214658
:101AE8000198FFF79FFF0446019800F019FB204674
:101AF80002B010BD0124FAE70E2A13B5044601D935
:101B080000BEFEE70E2901D900BEFEE741EA021138
:101B18008DF80710FFF7DFFE012301460DF10702DC
:101B28002046FFF73DFF02B010BD00007FB5041E40
:101B380014BFFF2001206946FFF7CAFF00283CD1E7
:101B4800002C14BFFF20022002A9FFF7C1FF0128C3
:101B580004BF03238DF808309DF800509DF80860F5
:101B68001D4A04BF40F20333ADF80A300024107850
:101B78002946FFF7B6FE30B350783146FFF7B1FE7D
:101B880008B39378042B03D09DF8031099421AD117
:101B9800D378042B03D09DF80B10994213D11379F5
:101BA800042B03D09DF8021099420CD15379042BD1
:101BB80005D19079831E022B0BD9FF2009E09DF8EF
:101BC8000A109942F5D00134042C02F10702CED153
:101BD800012004B070BD00BF76360008816818394E
:101BE80021F0070101220839FFF705BF2DE9F04F61
:101BF800B7B0DFF84891429FD9F800600397419F3A
:101C080002970DF1380B409FCDF804B00097439D23
:101C180080468A46144600F05DF928B1D9F800607C
:101C2800304637B0BDE8F08F55B15A4616AF134667
:101C380003CBBB42286069601A4605F10805F6D156
:101C480021464046FFF75CF800230D90009322469A
:101C58004FF6FF73514607A800F076F807460028AC
:101C6800DCD1DDE90C32214640469D1AFFF7F5FD2F
:101C7800A842D3D3DFF8C880DFF8C8A04FF0FF35FB
:101C88000DF1160305AA06A907A800F0ABF800286D
:101C9800C4DB4ED1BDF81630102B15D0222B2AD01C
:101CA800012BEDD1BDF81430202BB7D8069916AA10
:101CB800204600F036FA0028B0D19DF8141016A876
:101CC80000F0DAF80546DBE7BDF81470202FA5D13F
:101CD80006993B4616AA204600F023FA00289DD113
:101CE8003A4616A95846FFF742FDD8F80030834215
:101CF80094D10127C4E7002D18DBDAF80030AB4295
:101D080014DDBDF81430802B88D8069916AA204611
:101D180000F007FA002881D1EDB2BDF81430009523
:101D280016AA2021584600F045F906464FF0FF351F
:101D3800A6E7012F7FF472AF72E700BF24000020EE
:101D480048000020403500082DE9F7430E461746A5
:101D58009946044628B94FF0FF38404603B0BDE81D
:101D6800F0830029F7D0002AF5D083690D891D4436
:101D7800CB681D4404230DEB03022946384600F0C6
:101D8800D0F980460028E6D1BDF80420718946F6CE
:101D980008139A4223D1BDF806309942DBD10423B7
:101DA8000DEB03022944384600F0BBF90028D2D1D4
:101DB800BDF8042046F607139A42CCD1C4E900675F
:101DC8009DF82830A4F80890A3727389BDF80620FE
:101DD8002B44E3600435134463612561BDE70029A2
:101DE800E6D0B8E72DE9F7430F4690461E4604466D
:101DF80020B94FF0FF3003B0BDE8F0830368002B33
:101E0800F7D04368002BF4D04FF6FF79D4E90413D8
:101E1800994215D223685B8923B1E3688B4204BFDA
:101E280004312161042360680DEB030200F079F9A5
:101E38000028DED1A37A256923B1E368AB4201D833
:101E48000120D8E72189BDF80620494502F104039D
:101E580003D0BDF804C08C450BD116B1BDF80410F1
:101E6800318004353D60A8F8002022691A442261B7
:101E7800C1E72B442361C9E72DE9F0412029A4B02B
:101E880080460D4605D94FF0FF34204624B0BDE802
:101E9800F0810E4B0E4E1F680024A742F3DD08A800
:101EA80000F0F0FA736856F8081B1A6808A800F0E2
:101EB80015FB08A9684600F037FB2A4641466846E4
:101EC80001F0E4FA0028E0D00134E6E740350008E4
:101ED800443500082DE9F0479CB00C461146DDE971
:101EE8002657249E90469946FEF70AFF8246684682
:101EF80000F0C8FA35B1002F04DD3A462946684695
:101F080000F0ECFA63892289E76813441F4400242F
:101F1800BC4207D32598694600F006FB00201CB098
:101F2800BDE8F0873D1BB54228BF35462B464A46DB
:101F380004EB0A01404600F0F4F80028EFD12A46E5
:101F48004946684600F0CAFA2C44E1E72DE9F34116
:101F58000D4604461146022301AA284601F019FA43
:101F6800064618BB019F1F2F12D92B68A7F1200224
:101F7800134403F1200253F8041B44F8041B934252
:101F8800F9D12B683B442B60304602B0BDE8F081A4
:101F9800C7F1200842460146204601F087FA296821
:101FA8003A4604EB080001F0ADFAEAE76FF00206E2
:101FB800EAE700002DE9F04798B016461D469DF85F
:101FC8008020394BDFF8F08053F83210039103EB8F
:101FD800C20307465B68D8F80090186804AA014451
:101FE800302303A801F0D5F9002849D1DDE90343DE
:101FF8001C4405AA08AB214603A801F0F2F9002801
:102008003ED1069A072A3BD12849079801F03EFAA3
:10201800002835D1099A082A32D125490A9801F0B1
:1020280035FA68BB04AA214603A801F0C6F938BBF3
:10203800DDE903A30AEB0302944221D1412B1FD10E
:102048003544302305AA294604A8049601F0A1F9CD
:10205800A0B9DDE9043213449D420FD32A4604A9EE
:1020680008A8FFF773FF48B92A4604A910A8FFF784
:102078006DFF18B99AF80030042B05D0D8F80090F5
:10208800484618B0BDE8F08700F0E4FE08AB0090C1
:10209800202239460AF1010000F0CDFF054B012846
:1020A800D3F80090ECD0E9E744350008AB360008D7
:1020B800A23600084800002024000020012808D08B
:1020C800022808D10120054B404200F00C001844BA
:1020D80070470020F7E70020704700BFB4360008BB
:1020E80010B5044668B10078FFF7E8FFA04208D1B0
:1020F8008068884205D3401A904234BF00200120EE
:1021080010BD0020FCE708B539B1FFF7D7FF08601C
:10211800B0FA80F04009404208BD4FF0FF30FBE7BD
:102128007047F8B515461A4607460E461C46FFF78F
:10213800D7FF70B125B9201E18BF01204042F8BD55
:102148000CB90020FBE779682846314401F0DAF938
:10215800F7E74FF0FF30F2E72DE9F04117461A464E
:1021680080460E461C46FFF7BBFFB8B107B9ACB9AD
:1021780046EA040515F0070510D1ECB1D8F804308B
:102188001E44FEF76BF948B97B197A595B68A9199F
:102198000020FEF7A9F928B1FEF772F94FF0FF30D9
:1021A800BDE8F0810835A542EED1FEF769F900389F
:1021B80018BF01204042F3E72046F1E770B586B02A
:1021C8000646FFF78DFFD0B1CAB141EA0203C3F357
:1021D8000A03A3B9029301230393736801F17844B6
:1021E8001C44E40AD50A04940595FEF737F930B97A
:1021F80001A902A8FEF750FA28B1FEF741F94FF0FD
:10220800FF3006B070BDFEF73BF9003818BF01205B
:102218004042F6E708B5024630B10078FFF74EFFB6
:10222800131A5A425A41D00008BDFF207047FF28B0
:1022380038B502D94FF0FF3038BDC0B2FFF73EFFC6
:102248000028F7D00029F5D0002AF3D080680B6861
:10225800C00A98420860EDD80023111D4FF40064AD
:10226800834201D10020E7E7DD0242F8335041F80C
:1022780033400133F4E710B5044680B10078FFF726
:102288001DFFA0420BD152B183688B4207D96FF36F
:102298000A014FF4006311605360002010BD4FF035
:1022A800FF30FBE730B941B101290CBF02204FF0E4
:1022B800FF3070474FF0FF30704701207047000033
:1022C8002DE9F04F9DB00368039343680493836836
:1022D8000593C36806930369079343690893836961
:1022E8000993C3690A938A46DDE9072CDDE905B736
:1022F800DDE903159846DFF888E1099B019300267C
:102308005AF806405EF8049B0CAB24BA9C514FEA7D
:10231800F223A14483EAB213019C83EA72634B441B
:1023280024EA020402EA0C0984EA09042344434427
:1023380085EA0B044FEA713888EAB1080C4005EACF
:102348000B0984EA090488EAB158A0440436DC1968
:10235800402E43440093DDF804805F467FD1474B0D
:102368000B934FF0100A56460AF1010A1CAB0AF00B
:102378000F0703EB870706F00F0957F8403C029355
:102388004FEAB34806F10E07093688EAF31806F053
:102398000F061CAB03EB860603EB890907F00F0752
:1023A80003EB870756F8406C59F8403C57F8407CD7
:1023B8001E44029B4FEAF74E88EAD3088EEA774E0E
:1023C8008EEA972E464476444FEAF42E0B9B49F842
:1023D800406C04EA02088EEAB41E2CEA04078EEA6E
:1023E800746E87EA0807774453F804EF0B93774431
:1023F800009B3744019ECDF804C03E444FEA733E2B
:1024080081EA05078EEAB30E1F4001EA05088EEA45
:10241800B35E87EA08077744BAF1400F06EB0B0E64
:102428003744AB4623D1039B009E3B440360049B87
:1024380033444360059B0B448360069B2B44C36075
:10244800079B73440361089B23444361099B13441E
:1024580083610A9B6344C3611DB0BDE8F08FCDF86A
:1024680004C0AB4694460D462246009948E7944678
:102478000D46224600990097744674E7083700080D
:10248800CC36000810B50446C8B17022002100F00F
:10249800A0F80B4B0B4A0C490C48C4E900230C4B21
:1024A800C4E902130B4BC4E904030B4BA36103F10A
:1024B8007453A3F52303A3F69243E361012010BDEF
:1024C80085AE67BB67E6096A72F36E3C7F520E51B0
:1024D8003AF54FA58C68059BABD9831FF8B50C4618
:1024E80010B1F9B10AB90120F8BD8D1800F128061C
:1024F8000027AC42F7D0836E5A1C8266034414F856
:10250800011B83F828103F2AF3D93146FFF7D8FE7C
:10251800D0E9083213F5007342F10002C0E908322D
:102528008766E6E70846DFE7F8B50C460546002863
:102538004CD000294BD08B6ED1E90821D800121855
:1025480041F10001581C2344C4E9082138284FF000
:102558008002A0664FF0000783F8282004F12806BF
:102568000BD9C0F140023946304400F032F8204619
:102578003146FFF7A5FEA7663846C0F138020021AC
:10258800304400F026F8236A626A1BBA12BAC4E91A
:10259800182331462046FFF793FE2B1D211F2435B3
:1025A80051F8042F03F8012C100E03F8040C100C3A
:1025B80003F8030C100A03F8020C0433AB42EFD102
:1025C80020467022002100F004F80120F8BD0846DA
:1025D800FCE700F06BBFF0B500240646204665B264
:1025E800AB4200DCF0BD51F8247052F824503D4451
:1025F8000544AF4218BF002046F8245088BF40F079
:1026080001000134EBE700EB81010023884200D38D
:10261800704751F8042D43EA52030B60D307F5E7DE
:10262800036870B513F001060546144605D0134635
:102638000A460146FFF7CFFF064621462846FFF720
:10264800E2FF46B104F18042013A55F8223043F0E6
:10265800004345F8223070BD2DE9F74F002700925E
:102668003D463C464FFA87F9994516DB4FF0FF3651
:1026780006EB430201924FF00008019A53FA88FED4
:102688004FFA8EFE96455FFA88F629DB00EBC30009
:1026980040F8044C03B0BDE8F08F009A4FF0000EEC
:1026A80002EB870AF04651F82E205AF80469A2FB7B
:1026B800066C36190EF1010E5CEB050C34464FFA28
:1026C8008EF64FF0000B28BF4FF0010BB145D844F0
:1026D8006546E8DA40F82740454601376446C1E7D1
:1026E800009A0136A94676B202EB8E0A002577B227
:1026F800BB4205DC40F82E4008F101084C46BCE717
:102708006FF0030202FB06F751F826205AF807700B
:10271800A7FB027C3F195CEB090C4FF0000B28BFAC
:102728004FF0010B5D44E1463C460136DFE70023EC
:1027380010B51C465AB2914200DC10BD40F8234047
:102748000133F7E710B500231A465CB2A14203DC57
:10275800B2FA82F0400910BD50F8234001332243F9
:10276800F3E74A11012350F8220001F01F018B40C2
:10277800184070474B1E10B55BB2041D1A0603D4EF
:102788005A1E54F8221071B101335BB24BB103F1F8
:102798008042013A50F82220B2FA82F2C2EB431387
:1027A8009BB218B210BD1346E8E710B500235CB21F
:1027B800A24200DC10BD51F8234040F82340013309
:1027C800F5E710B5013A52B2130601D5002010BD45
:1027D80050F8224051F822309C4205D802F1FF32CD
:1027E800F2D24FF0FF30F2E70120F0E730B5013ABE
:1027F80052B20023140603D5181E18BF012030BD9D
:1028080050F8224051F822506C402343013AF1E736
:10281800F0B5002406469C46204665B2AC4500DC6F
:10282800F0BD51F8247052F824303D1AED1AAF4229
:1028380018BF002046F8245038BF40F0010001348A
:10284800EBE70000F0B5082289B0FFF7AEFFCB6ACE
:1028580003930B6B04934B6B05938B6B0693CB6BBA
:1028680007930C4606460027134669466A4668469B
:10287800CDE901770097FFF7AEFE314605463046B1
:10288800FFF7A9FE216B0391616B0491A16B059180
:10289800E16B0544CDE9061768466946FFF79BFEDC
:1028A800314605443046FFF796FE0544206A0090FD
:1028B800606A0190A06A0290A06B0690E06B079096
:1028C8003046CDE904770397FFF785FE0544606A33
:1028D8000090A06A0190E06A0290A06BD4F834C01E
:1028E8000490E06BCDF80CC0CDE9050C206A079088
:1028F8003046FFF770FE0544E06A0090206B0190B7
:10290800606B0290206A0690A06A07903046CDE975
:1029180004770397FFF77CFF236B0093636B0193A6
:10292800A36B0293E36B0393636A0693E36A0793CB
:102938002D1A08233046FFF76BFF636B0093A36BD8
:102948000193E36B0293236A0393636A0493A36A74
:10295800CDE90537236B07932D1A08233046FFF777
:1029680057FFA36B0093E36BCDE90137636A0393C9
:10297800A36A0493E36A0593636B07932D1A0823EC
:102988003046FFF745FF2D1A10D50D4A082331466A
:102998003046FFF720FE2D18F7D409B0F0BD084ADD
:1029A800082331463046FFF733FF2D1A002DF6D1A4
:1029B800034808223146FFF704FF0128EFD1ECE76E
:1029C800D037000870B59DF910601D46334604469F
:1029D800FFF701FE30B9324621462846FFF7F1FEDF
:1029E800012807D033462A4621462046BDE87040D4
:1029F800FFF70EBF70BD70B59DF910601D463346D8
:102A08000446FFF705FF38B133462A4621462046DB
:102A1800BDE87040FFF7DFBD70BD2DE9F04FA7B0EE
:102A28001D4616ABCDE90431029029461046904662
:102A3800FFF7A0FEC0EB851424B2002C2146B8BFD6
:102A480004F11F01634203F01F0306AF41F347116E
:102A580004F01F06384658BF5E42FFF768FE002E96
:102A68004FEA81002CDD002238441346C6F1200EBF
:102A78009D421AD8AB00039307EB8503019305F138
:102A8800FF3826AB4FEA4509012603EB8808002CDE
:102A980055DA26AB03EB8606029856F8881C2A46B8
:102AA800FFF783FE27B0BDE8F08F58F823C00CFA73
:102AB80006F10A4340F8042B01332CFA0EF2D7E74B
:102AC8002A4641463844FFF770FED3E75AF8883C57
:102AD80053F8212026AB03EB810353F8803C634471
:102AE800D31A34BF4FF0010B4FF0000B9A4204D0B9
:102AF800BBF1000C18BF4FF0010C5EF8882C42F8AF
:102B08002130013041B24945E0DBA6EB0C035E42BF
:102B1800294638465E41FFF776FD039B01989833B6
:102B28006B44294653F8802C58F8803C013C43EA12
:102B3800C27348F8803C24B2FFF765FDA7E726ABCF
:102B4800002086F0010E844603EB860A03EB8E0E06
:102B5800D8E730B591B004461D4668469DF9503017
:102B6800FFF77AFD2A4669462046FFF756FF11B05F
:102B780030BD30B51C4691B0054693F90030684623
:102B8800FFF76AFDD4F8AC3069462846984711B07B
:102B980030BD13460A46FFF7ECBF2DE9F04793F91D
:102BA800006092B0044689461046314615461F46D5
:102BB800FFF7C8FD002840F091803A46494602A830
:102BC800FFF7E7FF3B4602AA21460AA8FFF7D1FF15
:102BD80002A908463A46FFF7DCFF3B462A46494623
:102BE8004846FFF7C6FF07F104083A462946284633
:102BF800FFF7CFFF43462A46214620460096FFF7B7
:102C0800E1FE43462A46294628460096FFF7DAFEA3
:102C180043462A46214628460096FFF7ECFE3B46E7
:102C28002A4621462046FFF7A4FF4346224621466E
:102C380028460096FFF7C6FE434600962A462146D8
:102C48002046FFF7BFFE2368DB074AD533464246D6
:102C580021462046FFF7BFFC314682462046FFF753
:102C6800D2FC06F18043013B54F8232042EACA72A1
:102C780044F823203A4621462846FFF78AFF434670
:102C88000AAA294628460096FFF7B5FE43460AAA2F
:102C9800294628460096FFF7AEFE0AA9084643468D
:102CA8002A460096FFF7A7FE3B460AAA2146204679
:102CB800FFF75FFF02AA4346104621460096FFF73A
:102CC8009AFE324629462046FFF76FFD49462846B8
:102CD800FFF76BFD02A94846FFF767FD12B0BDE894
:102CE800F08731462046FFF78EFCC3E72DE9F04117
:102CF80015468AB004460E461C22002103A800F09F
:102D0800D5FB2F1D95F9008003232A46314620461E
:102D18000293FFF73EFF3B4602AA21462046CDF824
:102D28000080FFF768FE2B46324621462046FFF713
:102D380020FFCDF800803B4605F18402214620465D
:102D4800FFF740FE0AB0BDE8F081F0B50F46A1B02C
:102D580006461946384615461C46FFF7F3FC28B1C7
:102D6800304621B0BDE8F040FFF7E1BC22463946C5
:102D78006846FFF71AFD294608A8FFF716FD10A8B0
:102D88002146FFF7D4FC012318A81093FFF7CFFCC6
:102D9800224608A96846FFF714FD30B9224610A953
:102DA8003046FFF702FD21B0F0BD009BDA0709D4D9
:102DB80021466846FFF727FC2246294610A8FFF758
:102DC8002FFCE5E7089BDB0707D4214608A8FFF797
:102DD8001AFC2246294618A8F1E7012823461CD1E7
:102DE80008AA69466846FFF713FD21466846FFF7BB
:102DF8000AFC224618A910A8FFF7E3FC013005D108
:102E080010A923462A460846FFF7E5FB10A92346E2
:102E180018AA0846FFF7FCFCCEE76A4608A8FFF7A1
:102E2800F7FC214608A8FFF7EEFB224610A918A8D0
:102E3800FFF7C7FC013005D118A923462A460846E2
:102E4800FFF7C9FB18A9234610AA0846FFF7E0FCBC
:102E5800BFE7000000487047CC370008F0B51546BA
:102E680089B01C4607460E461A4629466846FFF7AB
:102E780090FE23466A4639463846FFF77AFE2346CF
:102E88002A4669466846FFF774FE23466A46314675
:102E98003046FFF76EFE09B0F0BD2DE9F0478AB065
:102EA8001446DDF848A055461F4615F9046B0096F0
:102EB800804689462B460246214602A8FFF79BFD1D
:102EC80002A952460846FFF764FE534602AA414645
:102ED8004046FFF74EFE534602AA21462046FFF71A
:102EE80048FE2B464A46394638460096FFF783FD8A
:102EF8005246394602A8FFF74CFE02A92B46424625
:102F080008460096FFF777FD02A92B462246084699
:102F18000096FFF770FD2B46424621462046009654
:102F2800FFF769FD5346224649464846FFF721FE0A
:102F38002B4602AA414620460096FFF75CFD534601
:102F4800224639463846FFF714FE2B464A4639468C
:102F580038460096FFF74FFD324602A92046FFF794
:102F680024FC0AB0BDE8F087F8B50E46D11C48BF6E
:102F7800911D41F387011446FFF7D9FB0025671E11
:102F88006AB2A24205F1010500DBF8BDBB1A23F0C5
:102F98000301B25C03F00303DB009A404358134378
:102FA8004350EDE72DE9F0471F46B3F9023013F11E
:102FB8001F0448BF03F13E046511DC1D48BF03F13F
:102FC8000E04E41094424FFA85F928BF14460646C9
:102FD80088464946FFF7ABFB224641463046FFF795
:102FE800C3FFB7F90220B2EBC40F4FEAC40320D2E3
:102FF8009B1A06EB85040021C3F12005A6420FD3D6
:1030080024374A4631463846FFF7DBFB012810D003
:103018004B463A4631463046BDE8F047FFF7F8BB25
:1030280054F8040D20FA03F20A43226000FA05F16D
:10303800E4E7BDE8F0872DE9F04FFDB01E46869D18
:103048000592B5F9023095F9004013F11F0248BF07
:1030580003F13E0242F3471808F1FF3924AA00237E
:1030680042F829307CAA02EB8902834642F8C03C28
:1030780042F8A03C0F4695F9012001466CA8FFF7DD
:1030880073FFA30095F9012007936CAB03EB840A47
:103098000BEB02015046FFF767FF95F90120314617
:1030A8004CA8FFF761FF95F9012054A8B118FFF764
:1030B8005BFF21464CA8FFF745FB18B100207DB007
:1030C800BDE8F08F214654A8FFF73CFB0390002889
:1030D800F4D105F1240342464CA918460493FFF79E
:1030E80070FB0128EAD1424654A905F12400FFF7F4
:1030F80068FB01280690E1D11CAE0DF1300B434668
:1031080005F1240254A93046FFF71FFE039B4BF834
:1031180029303946059A2B465846FFF743FF05F1F3
:103128002403324659465846CDF80080FFF711FD72
:103138005CAF05F1240332464CA914A8CDF80080F1
:10314800FFF707FD384622466CA9FFF72EFBA300C0
:1031580007EB0309514648462246FFF726FB05F1CF
:1031680044031946224634A89A46FFF71EFBA300DB
:103178000AEB030122463CA8FFF717FB2B1D394633
:1031880034AA304600940593FFF735FC4B463A467F
:103198003CA934A80095FFF780FE23462A1D314636
:1031A8003046FFF7D2FD2B46494638463246FFF7F0
:1031B80055FE039A4146CDE9082A58466CAACDE93E
:1031C8000A27FFF7D7FA4146814614A8FFF7D2FA33
:1031D8008145B8BF81461FFA89F909F1FF3A0FFA0C
:1031E8008AFA51465846FFF7BCFA5146074614A8D2
:1031F800FFF7B7FA003818BF0120003F18BF0127B2
:1032080008AB47EA4007224653F8277024A83946F6
:10321800FFF7CBFAA300F91822462CA8FFF7C5FA46
:1032280021463046FFF783FA069B3360A9F102096D
:103238000FFA89F9B9F1000F21DA059A23463146C8
:103248003046FFF782FD2B4632462CA924A8FFF70B
:1032580005FE0498424624A9FFF7B3FA012805D0D1
:1032680024A9049A43460846FFF7D2FA22464CA9F5
:1032780024A8FFF7BBFAB0FA80F040091FE72B46F5
:103288003246D5F8A4702CA924A8B84749460CA8FA
:10329800FFF767FA4946074614A8FFF762FA0038AD
:1032A80018BF0120003F18BF012747EA400708ABB5
:1032B80053F8277027B32246394634A8FFF775FA22
:1032C800079B2246F9183CA8FFF76FFA2B463246AF
:1032D8003CA934A8FFF7C2FD059B009434AA24A991
:1032E80044A8FFF788FB2CAB24AA3CA934A8009576
:1032F800FFF7D3FD2B4644AA31463046FFF739FC89
:1033080009F1FF3994E770B504680D1B002D02DC44
:103318006FF05F0070BD94F900602378002E08DB21
:10332800651C056023781360491B9942F0D300207F
:10333800F0E703F07F03013B032B27D8DFE803F016
:103348000209121E012DE3D063781360A51C0560E5
:10335800EAE7022DDCDDB4F801305BBA9BB21360FA
:10336800E51CF4E7032DD3DDA37865781B0243EA57
:103378000543E5782B431360251DE8E7042DC7DDD9
:10338800D4F801301BBA1360651DE0E76FF06300E5
:10339800C0E770B404680E1B002E07DD26789E4235
:1033A80008D10134046070BCFFF7ADBF6FF05F0057
:1033B80070BC70476FF06100FAE738B50323044624
:1033C800FFF7E7FF18B9136813B96FF0670038BD46
:1033D800013B136023681A78002AF6D10133236071
:1033E800F5E72DE9F74390461F4601AA3023054625
:1033F8008946FFF7CEFF0446F8B92E68A9EB0609FF
:10340800B9F1000F32DD4246337842F8043B019BA4
:103418001E44314606232846FFF7BBFF044660B921
:103428002A68D8F80410C8F808205318B3422B604B
:1034380007D10C21384600F01FF8204603B0BDE83C
:10344800F083515C3A46013342F8041B28462B604E
:103458003146FFF758FF60B92B687A68BB601344A0
:10346800B3422B6018BF6FF06504E6E76FF05F04A6
:10347800E3E70446E1E700000A4619B1024B0021E0
:103488001B681847704700BF7C38000810B5013921
:103498000244904201D1002005E0037811F8014F61
:1034A800A34201D0181B10BD0130F2E702440346C5
:1034B800934200D1704703F8011BF9E770B50D4B33
:1034C8000D4D5B1B9C100026A64209D100F028F880
:1034D8000A4D0B4B5B1B9C100026A64205D170BD04
:1034E80055F8043B98470136EEE755F8043B9847F2
:1034F8000136F2E780380008803800088038000874
:10350800843800080A44914200F1FF3300D1704723
:1035180010B511F8014B03F8014F9142F9D110BDD4
:10352800F8B500BFF8BC08BC9E467047F8B500BFA8
:08353800F8BC08BC9E46704778
:1035400001000000503500084C3500085B00000009
:103550003059301306072A8648CE3D020106082A54
:103560008648CE3D03010703420004286F20628E87
:10357000803394046D1A55A6AB7975F517A1508266
:10358000ADB797F732BAF68C2F742F0AD112FEDB43
:10359000412EEC110E5A85DDE6E379DE3FE501F5BB
:1035A0003C8D4F35D53B97706969112F686F6D65FC
:1035B0002F6774632F4465736B746F702F776F720E
:1035C0006B73706163652F53544D33325F50524FAC
:1035D0004A2F582D43414E2F447269766572732FDE
:1035E00053544D3332473478785F48414C5F4472CE
:1035F000697665722F5372632F73746D333267343B
:1036000078785F68616C5F666C6173682E63002F09
:10361000686F6D652F6774632F4465736B746F708B
:103620002F776F726B73706163652F53544D333214
:103630005F50524F4A2F582D43414E2F44726976A6
:103640006572732F53544D3332473478785F484155
:103650004C5F4472697665722F5372632F73746D79
:103660003332673478785F68616C5F666C61736869
:103670005F65782E6300040104030401040401045F
:10368000030404020401040104040301040304010B
:10369000040477C295F360D2EF7F3552500F2CB6F9
:1036A00079802A8648CE3D030107002A8648CE3D10
:1036B00002010000010000000060000800C80000D6
:1036C000020000000028010800D00000982F8A4264
:1036D00091443771CFFBC0B5A5DBB5E95BC2563964
:1036E000F111F159A4823F92D55E1CAB98AA07D87C
:1036F000015B8312BE853124C37D0C55745DBE729F
:10370000FEB1DE80A706DC9B74F19BC1C1699BE41E
:103710008647BEEFC69DC10FCCA10C246F2CE92DAE
:10372000AA84744ADCA9B05CDA88F97652513E98D2
:103730006DC631A8C82703B0C77F59BFF30BE0C6D9
:103740004791A7D55163CA0667292914850AB72767
:1037500038211B2EFC6D2C4D130D385354730A6504
:10376000BB0A6A762EC9C281852C7292A1E8BFA2DB
:103770004B661AA8708B4BC2A3516CC719E892D143
:10378000240699D685350EF470A06A1016C1A419C6
:10379000086C371E4C774827B5BCB034B30C1C39C5
:1037A0004AAAD84E4FCA9C5BF36F2E68EE828F7484
:1037B0006F63A5781478C8840802C78CFAFFBE909E
:1037C000EB6C50A4F7A3F9BEF27871C60820000193
:1037D000FFFFFFFFFFFFFFFFFFFFFFFF00000000F5
:1037E000000000000000000001000000FFFFFFFFDC
:1037F000512563FCC2CAB9F3849E17A7ADFAE6BC93
:10380000FFFFFFFFFFFFFFFF00000000FFFFFFFFC4
:1038100096C298D84539A1F4A033EB2D817D03776A
:10382000F240A463E5E6BCF847422CE1F2D1176B05
:10383000F551BF376840B6CBCE5E316B5733CE2BD8
:10384000169E0F7C4AEBE78E9B7F1AFEE242E34F07
:103850004B60D2273E3CCE3BF6B053CCB0061D6544
:10386000BC86987655BDEBB3E7933AAAD835C65ACD
:10387000A32B0008F52C00084D280008B5340008DB
:04388000FD0100083E
:04388400D90100085E
:103888000000000000000000000000000000000030
:10389800010000000000000000000000000000001F
:0838A80001000000FFFFFFFF1B
:04000005080002DD10
:00000001FF
